:100000000FC028C027C026C025C024C023C022C0DE
:1000100021C020C01FC01EC01DC01CC01BC093003B
:1000200011241FBECFE5D2E0DEBFCDBF20E0A0E6A9
:10003000B0E001C01D92A237B207E1F710E0C0E1C5
:10004000D0E003C02197FE016DD2CF30D107D1F7A8
:1000500002D06EC2D5CF83E283BF81E087B987EC3F
:1000600086B9789482E087BB84E088BB3699FECF5E
:10007000C4E61E9A1E99FECF64B175B180E090E08F
:1000800058D123E333E343EA5BE3E1D16B017C0125
:1000900060936A0070936B0080936C0090936D0086
:1000A0009B01AC0160916E0070916F0080917000B7
:1000B0009091710045D020E030E04AE754E4A5D0AB
:1000C0004B015C0160936600709367008093680049
:1000D000909369002DEC3CEC4CE45FE3C701B60162
:1000E0002FD020E030E543EC57E48FD09B01AC01EA
:1000F0006093620070936300809364009093650046
:10010000C501B40182D0E9D07093610060936000B2
:10011000C8BD2FEF89E698E1215080409040E1F77B
:1001200000C00000A6CF89EF92E0A5E9B0E580937A
:100130006E0090936F00A0937000B09371000895CB
:100140005058BB27AA270ED048C139D130F03ED134
:1001500020F031F49F3F11F41EF42EC10EF4E0950F
:10016000E7FB24C1E92F4AD180F3BA17620773076E
:100170008407950718F071F49EF562C10EF4E095BE
:100180000B2EBA2FA02D0B01B90190010C01CA0151
:10019000A0011124FF27591B99F0593F50F4503EFC
:1001A00068F11A16F040A22F232F342F4427585FEE
:1001B000F3CF469537952795A795F0405395C9F706
:1001C0007EF41F16BA0B620B730B840BBAF09150BE
:1001D000A1F0FF0FBB1F661F771F881FC2F70EC05D
:1001E000BA0F621F731F841F48F487957795679530
:1001F000B795F7959E3F08F0B3CF9395880F08F019
:100200009927EE0F9795879508950CD0E6C0DED01C
:1002100040F0D5D030F021F45F3F19F0C7C0511144
:1002200010C1CAC0EBD098F39923C9F35523B1F399
:10023000951B550BBB27AA2762177307840738F055
:100240009F5F5F4F220F331F441FAA1FA9F333D0B4
:100250000E2E3AF0E0E830D091505040E695001C68
:10026000CAF729D0FE2F27D0660F771F881FBB1F24
:10027000261737074807AB07B0E809F0BB0B802DFE
:10028000BF01FF2793585F4F2AF09E3F510568F04A
:100290008DC0D7C05F3FECF3983EDCF38695779531
:1002A0006795B795F7959F5FC9F7880F911D96954C
:1002B000879597F90895E1E0660F771F881FBB1FA8
:1002C000621773078407BA0720F0621B730B840B55
:1002D000BA0BEE1F88F7E095089598D088F09F57E5
:1002E00090F0B92F9927B751A0F0D1F0660F771F82
:1002F000881F991F1AF0BA95C9F712C0B13081F062
:100300009FD0B1E008959CC0672F782F8827B85FF1
:1003100039F0B93FCCF3869577956795B395D9F7C2
:100320003EF490958095709561957F4F8F4F9F4FCC
:100330000895E89409C097FB3EF4909580957095D8
:1003400061957F4F8F4F9F4F9923A9F0F92F96E921
:10035000BB279395F695879577956795B795F11196
:10036000F8CFFAF4BB0F11F460FF1BC06F5F7F4F33
:100370008F4F9F4F16C0882311F096E911C0772345
:1003800021F09EE8872F762F05C0662371F096E84E
:10039000862F70E060E02AF09A95660F771F881F1D
:1003A000DAF7880F9695879597F9089597F99F67DB
:1003B00080E870E060E008959FEF80EC08950024ED
:1003C0000A941616170618060906089500240A94BA
:1003D00012161306140605060895092E0394000C40
:1003E00011F4882352F0BB0F40F4BF2B11F460FFCF
:1003F00004C06F5F7F4F8F4F9F4F089557FD9058F8
:10040000440F551F59F05F3F71F04795880F97FBD8
:10041000991F61F09F3F79F0879508951216130692
:100420001406551FF2CF4695F1DF08C016161706C1
:100430001806991FF1CF86957105610508940895F6
:10044000E894BB2766277727CB0197F908950AD050
:10045000C4CFB5DF28F0BADF18F0952309F0A6CF96
:10046000ABCFEFCFCBDFA8F39923D9F35523C9F353
:10047000950F50E0551FAA27EE27FF27BB27002422
:100480000894679520F4E20FF31FB41F0A1E220F91
:10049000331F441FAA1F6695A9F7779530F4F30F11
:1004A000B41F0A1E121E08F46395330F441FAA1FBF
:1004B000221F769599F7879520F4B40F0A1E121E15
:1004C000631F440FAA1F221F331F8695A9F7862F8B
:1004D000712D602D11249F5750408AF0E1F0882340
:1004E0004AF0EE0FFF1FBB1F661F771F881F91503A
:1004F0005040A9F79E3F510570F058CFA2CF5F3F03
:10050000ECF3983EDCF3869577956795B795F7956C
:10051000E7959F5FC1F7FE2B880F911D96958795F4
:1005200097F90895EE0FFF1F0590F491E02D0994BF
:04053000F894FFCF6D
:00000001FF
